:020000040800F2
:1000000008290020A1230008390900083B0900083D
:100010003F090008430900084709000800000000E4
:100020000000000000000000000000004B09000874
:100030004D090008000000004F09000851090008A0
:10004000BB230008BB230008BB230008BB23000818
:10005000BB230008BB230008BB230008BB23000808
:10006000BB230008BB230008BB230008BB230008F8
:10007000BB230008BB230008BB230008BB230008E8
:10008000BB230008BB230008BB230008BB230008D8
:10009000BB230008BB230008BB230008BB230008C8
:1000A000BB230008BB230008BB230008BB230008B8
:1000B000D50B0008510C0008D91F0008BB2300080D
:1000C000BB230008BB230008BB230008BB23000898
:1000D000BB23000847230008BB23000805200008B5
:1000E000BB230008BB230008BB230008BB23000878
:1000F000BB230008BB230008BB230008BB23000868
:10010000BB230008BB230008BB230008BB23000857
:1001100033460008EB1D0008BB2300088146000899
:10012000BB230008BB230008BB230008BB23000837
:1001300000F002F800F071F80AA090E8000C824488
:100140008344AAF10107DA4501D100F066F8AFF265
:10015000090EBAE80F0013F0010F18BFFB1A43F0A5
:10016000010318471C7900003C7900000A444FF055
:10017000000C10F8013B13F0070408BF10F8014B06
:100180001D1108BF10F8015B641E05D010F8016B4B
:10019000641E01F8016BF9D113F0080F1EBF10F8AF
:1001A000014BAD1C0C1B09D16D1E58BF01F801CBD2
:1001B000FAD505E014F8016B01F8016B6D1EF9D555
:1001C0009142D6D37047000000230024002500266A
:1001D000103A28BF78C1FBD8520728BF30C148BFAA
:1001E0000B607047642904F0BB85002070471FB581
:1001F0009DE8030004F0DEFE05F088FB040000200B
:10020000002106F0FDFA401C60600020002106F08D
:10021000E1FAE0601FBD10B510BD05F084F811468D
:10022000FFF7E5FF00F01AF905F0FCFA03B4FFF759
:10023000F2FF03BC02F02AF800B591B00121084694
:1002400002F045FC0121480202F04EFC012104208D
:1002500002F04AFC9020ADF8000000208DF8030069
:100260006946FE4802F08AF90121102002F03CFCA8
:100270000420ADF8000000208DF803006946F8481E
:1002800002F07CF9F74803F0D1FFF7480190F748F6
:100290000290002003901E200490002005908020F2
:1002A00006904000079080000890202009900002EE
:1002B0000A9000200B9001A9EA4804F059F80121A6
:1002C000E84804F080F800200C9001208DF83400FC
:1002D0008DF835004FF460200E9000200F90032021
:1002E0008DF840000CA9E0484C3803F09EFD072330
:1002F00001220421DC484C3803F02FFE07230222A0
:100300000C21D9484C3803F028FE07230322194654
:10031000D5484C3803F021FE0121D3484C3803F076
:10032000BBFD0121D0484C3803F0ABFDCE484C3822
:1003300003F0C9FD00BFCC484C3803F0C9FD0028CC
:10034000F9D1C9484C3803F0CDFD00BFC6484C3840
:1003500003F0CDFD0028F9D10121C3484C3803F04A
:10036000D0FD11B000BD2DE9F0470024A146A24602
:1003700000BF09E004EB4400BC4931F810004844D8
:100380001FFA80F9601CC4B20A2CF3DB0A2099FB27
:10039000F0F01FFA80F9484606F00EFD07460022ED
:1003A000B34B06F059FD054606F040FA824650462A
:1003B000BDE8F0872DE9F0470024A146A24600BF22
:1003C0000AE004EB4400401CA84931F810004844FE
:1003D0001FFA80F9601CC4B20A2CF2DB0A2099FBD8
:1003E000F0F01FFA80F9484606F0E6FC07460022C6
:1003F0009F4B06F031FD054606F018FA824650463E
:10040000BDE8F0872DE9F0470024A146A24600BFD1
:100410000AE004EB4400801C944931F81000484481
:100420001FFA80F9601CC4B20A2CF2DB0A2099FB87
:10043000F0F01FFA80F9484606F0BEFC074600229D
:100440008B4B06F009FD054606F0F0F98246504652
:10045000BDE8F08710B500F0DAFC10BD88B001F0FF
:10046000A7FE01F00DFF00F063FB41F61F413120B4
:1004700000F082FBFFF7E0FE4FF4165001F0DBFDC9
:100480004FF4165004F061F87DE000F027FE794843
:10049000008820B101280AD002280BD102E000F028
:1004A000FBFB08E000F04CFD00F09CFD03E000F0D9
:1004B0004FFC00E000BF00BF6F48008820B101285A
:1004C00003D0022805D103E004E000F085FE01E03E
:1004D00000E000BF00BF01F0D4FAFFF744FF674916
:1004E0000860FFF767FF66490860FFF73CFF80463A
:1004F00006F0D0FECDE90401FFF75CFF019006F0A5
:10050000C9FE80465F4A604B06F0DAFDCDE9020184
:10051000DDE9042306F078FA5C4A5D4BCDE906017B
:1005200006F0B6F906465B4A5B4B06F06DFA0446E8
:1005300000225A4B06F090FC824606F0F9FB58491F
:1005400008805848008820B1012803D0022816D11D
:1005500014E015E0FFF756FF0746534906F0BCFFCD
:100560000646524906F0C2FE0546514906F0B4FF60
:10057000044606F07DFF4F49088001E000E000BF1F
:1005800000BFFFF767FF80E710B500244FF49670B7
:1005900004F048FB484908604FF4967146480068EB
:1005A00004F09CFC142004F03DFB44490860142135
:1005B0004248006804F092FC414801683E480068E7
:1005C00004F03BFC3F4801683B48006804F035FC00
:1005D0003D4802883DA13948006804F079FB37485E
:1005E00001683548006804F028FC39480168324841
:1005F000006804F022FC3748028834A12F480068C4
:1006000004F066FB2D4801682B48006804F015FCD7
:10061000314801682848006804F00FFC2F48028820
:100620002AA12648006804F053FB244801682248A8
:10063000006804F002FC2A4801681F48006804F0C2
:10064000FCFB2848028821A11C48006804F040FBFC
:100650001A4801681848006846E000000008014098
:1006600000100140080002404C240140CC01002051
:100670000000583FBA010020BC0100204C000020BF
:100680005000002059C0046EDDCDB33FCA32C4B162
:100690002E6EC33FC72E51BD35B0853F00002440AC
:1006A0005C000020BE01002000007A440000A04150
:1006B00000002041680100200000002030000020E0
:1006C00004000020080000203601002025640000FE
:1006D0000C000020380100201000002086000020BF
:1006E000140000208400002004F0A7FB7A48016871
:1006F0007A48006804F0A1FB79480288AFF234011F
:100700007848006804F0E4FA7648016873480068A5
:1007100004F093FB744801687048006804F08DFB96
:1007200072480288AFF25C016E48006804F0D0FAAB
:100730006C4801686948006804F07FFB6C480168F8
:100740006648006804F079FB6A480288AFF28401C9
:100750006448006804F0BCFA624801685F480068B9
:1007600004F06BFB644801685C48006804F065FBBA
:1007700062480288AFF2AC015A48006804F0A8FA57
:10078000584801685548006804F057FB5C48016808
:100790005248006804F051FB5A480288AFF2D40175
:1007A0005048006804F094FA4E4801684B480068CD
:1007B00004F043FB544801684848006804F03DFBDE
:1007C0005248AFF2F80102684648006804F080FA27
:1007D000444801684148006804F02FFB4C48016818
:1007E0003E48006804F029FB4A48AFF22011026835
:1007F0003C48006804F06CFA3A48016837480068E1
:1008000004F01BFB444801683448006804F015FB01
:100810004248AFF2481102683248006804F058FAC2
:10082000304801682D48006804F007FB3C48016827
:100830002A48006804F001FB3A48AFF270110268E0
:100840002848006804F044FA2648016823480068F4
:1008500004F0F3FA344801682048006804F0EDFA27
:100860003248AFF2981102681E48006804F030FA6E
:100870001C4801681948006804F0DFFA2C48016838
:100880001648006804F0D9FA00BF0EE000BF40210E
:10089000284802F03BFB0028F9D010480068015DB1
:1008A000244802F0C5FA601CC4B20C48006804F089
:1008B000A5FAA042EAD800BF40211E4802F026FB5C
:1008C0000028F9D00748006804F0DBF90348006805
:1008D00004F0D7F910BD000018000020000000202F
:1008E0005C000020300000201C0000203C010020A3
:1008F000200000203A010020240000203E010020BA
:100900002800002068010020340000204001002061
:1009100038000020440100203C0000204801002055
:10092000400000204C010020440000205001002025
:100930002C000020004C0040704700BFFEE700BFC5
:10094000FEE700BFFEE700BFFEE770477047704755
:10095000704700000CB50020019000906B480068C3
:1009600040F480306949086000BF6848006800F4BE
:10097000003000900198401C0190009818B901982F
:10098000B0F5A06FF1D16148006810F4003F02D0CB
:100990000120009001E0002000900098012842D141
:1009A0005B48006840F0100059490860084600683C
:1009B00020F0030008600846006840F0020008606C
:1009C00052484068514948600846406848600846B7
:1009D000406840F4806048600846406820F47C101D
:1009E00048600846406840F4E810486008460068DF
:1009F00040F08070086000BF4448006810F0007F3D
:100A0000FAD04248406820F0030040494860084658
:100A1000406840F00200486000BF3C48406800F079
:100A20000C000828F9D10CBD10B5FFF793FF10BDDD
:100A300010B53648006840F00100344908600846A7
:100A400040683449084031494860084600683249E6
:100A500008402E4908600846006820F4802008609D
:100A60000846406820F4FE0048604FF41F0088608C
:100A7000FFF7DAFF4FF000602849086010BD10B59D
:100A8000002100200022214B5B6803F00C0121B102
:100A9000042906D0082928D107E0214B214C2360E6
:100AA00027E01F4B1F4C236023E0184B5B6803F4C7
:100AB0007010164B5B6803F48032022303EB904006
:100AC00022B9194B4343174C23600DE00F4B5B6871
:100AD00013F4003F04D0144B4343124C236003E053
:100AE0000F4B43430F4C236003E00D4B0D4C236031
:100AF00000BF00BF054B5B68C3F303130B4CE15C05
:100B0000084B1B68CB40074C236010BD001002400F
:100B1000002002400000FFF8FFFFF6FE08ED00E0B5
:100B200000127A006000002000093D0064000020EF
:100B300008B50121084601F0D7FF0121082001F086
:100B4000D3FF01210A4801F0E8FD1120ADF80000B3
:100B500010208DF8030003208DF802006946054837
:100B600001F00CFD1121034801F0B3FD08BD0000A8
:100B700000023000000C01407FB505460C46012103
:100B8000084601F0BEFFADF80850ADF80440002063
:100B9000ADF80A00ADF8060001A94FF0804002F060
:100BA000E3FA01221146900702F055FE1C208DF851
:100BB000000003208DF8010002208DF802000120C2
:100BC0008DF80300684601F010FC0121880702F04F
:100BD00027FE7FBD10B50121880703F0EAF868B150
:100BE0000121880703F0F6F82748006808B90120BA
:100BF00000E000202449086003F02CFF10BD7FB501
:100C000005460C460121022001F07BFFADF808509B
:100C1000ADF804400020ADF80A00ADF8060001A9C7
:100C20001A4802F0A1FA01221146184802F013FEF8
:100C30001D208DF8000000208DF8010002208DF8A5
:100C4000020001208DF80300684601F0CEFB7FBD55
:100C500010B501210D4803F0ACF898B101210B4803
:100C600003F0B8F80021094802F0DAFD3222084901
:100C7000084804F0EEF83221054804F02FF9054841
:100C800000F02BFF10BD00009081214200040040C5
:100C9000D00B0020340C002070B592B0002400204E
:100CA000119000BF05E0FA48005D01A90855601CDD
:100CB000C4B2082CF7DB082101A801F025FA642052
:100CC00001F0B2FA11A9F34801F043FA9DF844008B
:100CD00009282BD19DF84400801E81B2ED4803F015
:100CE00081FF05469DF84400801EEA49095C9DF895
:100CF0004400401EE74A105C41EA0026B54215D187
:100D0000104600791146C97840EA0120E24908807E
:100D1000104680791146497940EA0120DF49088070
:100D20000020DF490870012012B070BDDC48017856
:100D30000078401CDA4A10700A2907DD0A201146A3
:100D400008700020D5490880D34908800020EBE7CF
:100D500070B592B000240020119000BF05E0D1488A
:100D6000005D01A90855601CC4B2082CF7DB0821FE
:100D700001A801F0C9F9642001F056FA11A9CA4886
:100D800001F0E7F99DF844000F282ED19DF84400AA
:100D9000801E81B2C44803F025FF05469DF844003B
:100DA000801EC149095C9DF84400401EBE4A105C8B
:100DB00041EA0026B54218D11046007B1146C97A97
:100DC00040EA0120B449088010464079000200EB57
:100DD00080001146897941EA4000B049088000202E
:100DE000AF490870012012B070BDAD48017800789D
:100DF000401CAB4A10700A2907DD0A201146087012
:100E00000020A6490880A44908800020EBE770B5BF
:100E100090B000240026A04800880012A349C871A1
:100E20009D48007808729D480088001248729B48CF
:100E3000007888729E4800880012C8729C4800782A
:100E400008739C480088001248739A480078887399
:100E5000994800880012C87397480078087497482A
:100E600000880012C8749548007808759448008876
:100E70000012487592480078887592480068000E04
:100E8000487690480068000C88768E480088000AF2
:100E9000C8768C48007808778B480068000E487741
:100EA00089480068000C887787480088000AC8775E
:100EB0008548007881F8200084480068000E81F899
:100EC000210082480068000C81F822007F480088D9
:100ED000000A81F823007D48007881F824007C48CE
:100EE0000068000E81F8250079480068000C81F840
:100EF000260077480088000A81F8270074480078A7
:100F000081F828002921694803F06CFE0546281263
:100F1000664981F82A0081F8295000BF05E063483E
:100F2000005D0DF80400601CC4B22B2CF7DB2B21F4
:100F3000684601F0E9F8642001F076F910B070BD60
:100F400070B592B000240020119000BF05E0614808
:100F5000005D01A90855601CC4B2082CF7DB08210C
:100F600001A801F0D1F8642001F05EF911A9494807
:100F700001F0EFF89DF84400072823D19DF84400C4
:100F8000801E81B2434803F02DFE05469DF84400C3
:100F9000801E4049095C9DF84400401E3D4A105C9B
:100FA00041EA0026B5420DD1104600791146C978B4
:100FB00040EA0120384908800020394908700120A2
:100FC00012B070BD364801780078401C344A107069
:100FD0000A2905DD0A201146087000202E490880E4
:100FE0000020EDE770B592B000240020119000BF02
:100FF00005E03948005D01A90855601CC4B2082C01
:10100000F7DB082101A801F07FF8642001F00CF95A
:1010100011A9204801F09DF89DF84400072827D128
:101020009DF84400801E81B21A4803F0DBFD05469E
:101030009DF84400801E1749095C9DF84400401E3D
:10104000144A105C41EA0026B54211D110460079DD
:101050001146C97840EA012000EB80004004000CF2
:101060000E49088000200E490870012012B070BDA2
:101070000B4801780078401C094A10700A2905DDE8
:101080000A20114608700020044908800020EDE77E
:1010900096000020F40100203601002038010020D5
:1010A00088000020D900002074020020AE0000203B
:1010B00086000020840000205C0000203A0100200F
:1010C0003E01002040010020440100204801002092
:1010D0004C0100209E000020A600002070B592B0B8
:1010E00000240020119000BF05E0F748005D01A931
:1010F0000855601CC4B2082CF7DB082101A801F0D8
:1011000003F8642001F090F811A9F04801F021F8EB
:101110009DF8440009284DD19DF84400801E81B2FD
:10112000EA4803F05FFD05469DF84400801EE7494C
:10113000095C9DF84400401EE44A105C41EA002628
:10114000B54237D1104600791146C97840EA0120EE
:10115000DF490880104680791146497940EA01202C
:1011600000B2DC490880DA480088B0F57A7F21DADD
:101170000846B0F9000010F1C80F1BDD0846B0F9B1
:101180000000B0F5487F15DA104600791146C9789D
:1011900040EA0120D04908801046807911464979FB
:1011A00040EA0120CD4908800020CD490870012087
:1011B00012B070BDCA4801780078401CC84A10704F
:1011C0000A2907DD0A20114608700020C34908805B
:1011D000C14908800020EBE770B592B000240020E0
:1011E000119000BF05E0BF48005D01A90855601CD3
:1011F000C4B2082CF7DB082101A800F085FF6420A9
:1012000001F012F811A9B84800F0A3FF9DF84400BE
:101210000B2833D19DF84400801E81B2B24803F000
:10122000E1FC05469DF84400801EAF49095C9DF82D
:101230004400401EAC4A105C41EA0026B5421DD174
:10124000104600791146C97840EA0120A749088074
:10125000104680791146497940EA0120A449088066
:101260001046007A1146C97940EA0120A149088058
:101270000020A1490870012012B070BD9E4801787D
:101280000078401C9C4A10700A2907DD002098490C
:101290000880984908800A20114608700020EBE772
:1012A00070B592B000240020119000BF05E0934873
:1012B000005D01A90855601CC4B2082CF7DB0821A9
:1012C00001A800F021FF642000F0AEFF11A98C48B6
:1012D00000F03FFF9DF8440009282BD19DF8440001
:1012E000801E81B2864803F07DFC05469DF84400CF
:1012F000801E8349095C9DF84400401E804A105CB2
:1013000041EA0026B54215D11046C07800061146C4
:10131000097940EA01401146497940EA0120114625
:1013200089790843774908600020774908700120CF
:1013300012B070BD744801780078401C724A107079
:101340000A2905DD00206F4908600A20114608704F
:101350000020EDE72DE9F04F89B081460D46164695
:101360009A464FF0000B002430783C2859DA317847
:10137000D9F8000045F821003078401C307000BFDB
:1013800003E055F824008344641C3078A042F8DC64
:10139000307805F011FD074600225C4B05F05CFD3E
:1013A000CDE90401584605F007FDCDE90201DDE96C
:1013B000042305F029FBCDE9060105F0B9FC8346BD
:1013C000BAF1000F29D0584605F0F6FC0746002276
:1013D0004F4B05F005FD20D203F0FEFC4D4908609F
:1013E0000968A1F5FE40FF3805F0CFFC0746002252
:1013F000494B05F009FB00224FF08043CDE9020183
:1014000005F02AFD0022454BCDE9040105F040FA24
:10141000CDE9060105F08CFC8346584609B0BDE8CD
:10142000F08F3B2405E055F82410601C45F820108F
:10143000641E002CF7DAD9F800002860002403E0CD
:1014400055F824008344641C3C2CF9DB584606F014
:101450002FF8059005F01EFF07460022304B05F0DF
:10146000D3FACDE9060105F063FC8346BAF1000F1B
:1014700027D0584605F0A0FC07460022244B05F073
:10148000AFFC1ED203F0A8FCA0F5FE40FF3801908F
:1014900005F07BFC074600221F4B05F0B5FA002241
:1014A0004FF08043CDE9020105F0D6FC00221B4B32
:1014B000CDE9040105F0ECF9CDE9060105F038FCB1
:1014C00083465846AAE70000E100002034020020CD
:1014D000920000209400002084000020860000205C
:1014E00089000020EE000020F40200203C010020D2
:1014F0003A0100203E0100208A0000202D0100203A
:101500007404002050010020900000200000F03FF3
:101510000000E03F64010020C0FFDF4000001440F5
:1015200000004E4030B593B00024002012900025FA
:10153000019000BF05E0FC48005D02A90855601C51
:10154000C4B20B2CF7DB0B2102A800F0DDFD6420F8
:1015500000F06AFE12A9F54800F0FBFD9DF8480076
:1015600012284FD1F148807A0004F049C97A40EA44
:101570000120EE49097B08430190019800F00F001B
:101580000199C1F303110A2202FB01000199C1F381
:101590000321642202FB01000199C1F303314FF4DE
:1015A0007A7202FB01000199C1F3034142F2107209
:1015B00002FB01000199C1F30351DD4A02FB010066
:1015C0000190019800EB800040000190052405E0A7
:1015D000D648005D2844C5B2601CC4B2102CF7DBAD
:1015E000D248007CA8420DD10023D24AD24901A89A
:1015F000FFF7B0FED14908600020D14908700120F2
:1016000013B030BDCE4801780078401CCC4A107031
:101610000A2905DD0020C94908600A201146087022
:101620000020EDE730B593B0002400201290002593
:10163000019000BF05E0C348005D02A90855601C89
:10164000C4B20B2CF7DB0B2102A800F05DFD642077
:1016500000F0EAFD12A9BC4800F07BFD9DF84800AF
:1016600012284AD1B848807A0004B749C97A40EABA
:101670000120B549097B08430190019800F00F0053
:101680000199C1F303110A2202FB01000199C1F380
:101690000321642202FB01000199C1F303314FF4DD
:1016A0007A7202FB01000199C1F3034142F2107208
:1016B00002FB01000199C1F303519D4A02FB0100A5
:1016C0000190052405E0A048005D2844C5B2601CD7
:1016D000C4B2102CF7DB9C48007CA8420DD100233B
:1016E0009A4A9B4901A8FFF735FE9A4908600020F5
:1016F00099490870012013B030BD974801780078EF
:10170000401C954A10700A2905DD002091490860A7
:101710000A20114608700020EDE730B593B0002490
:10172000002012900025019000BF05E08B48005D6D
:1017300002A90855601CC4B20B2CF7DB0B2102A8D0
:1017400000F0E2FC642000F06FFD12A9844800F074
:1017500000FD9DF8480012284AD18148807A000493
:101760007F49C97A40EA01207D49097B08430190FD
:10177000019800F00F000199C1F303110A2202FB46
:1017800001000199C1F30321642202FB01000199C8
:10179000C1F303314FF47A7202FB01000199C1F3E6
:1017A000034142F2107202FB01000199C1F303519F
:1017B0005F4A02FB01000190052405E06848005DD6
:1017C0002844C5B2601CC4B2102CF7DB6448007C0E
:1017D000A8420DD10123634A634901A8FFF7BAFD6E
:1017E00062490860002062490870012013B030BDD2
:1017F0005F4801780078401C5D4A10700A2905DDB9
:1018000000205A4908600A20114608700020EDE7C0
:101810002DE9F04393B000240020129081460190FE
:1018200000BF05E05348005D02A90855601CC4B222
:101830000B2CF7DB0B2102A800F066FC642000F003
:10184000F3FC12A94C4800F084FC9DF848001228D3
:1018500059D14948807A00044749C97A40EA0120B1
:101860004549097B08430190019800F00F00019958
:10187000C1F303110A2202FB01000199C1F3032104
:10188000642202FB01000199C1F303314FF47A7223
:1018900002FB01000199C1F3034142F2107202FB05
:1018A00001000199C1F30351214A02FB010001909B
:1018B000019805F081FA074600224FF0804305F0B9
:1018C000A3F8054605F034FA0190052406E02A48FD
:1018D000005D484400F0FF09601CC4B2102CF6DB28
:1018E0002548007C48450ED10023244A244901A8FC
:1018F000FFF730FD234908600020234908700120CC
:1019000013B0BDE8F083204801780078401C1E4ADF
:1019100010700A2905DD00201A4908600A201146C6
:1019200008700020ECE70000F600002034030020DF
:10193000A086010058010020B404002040010020CE
:101940008B000020010100207403002059010020B9
:10195000B4050020440100208C0000200C01002070
:10196000B40300205A010020B406002048010020E2
:101970008D00002017010020F40300205B010020EF
:10198000B40700204C0100208E00002030B593B039
:101990000024002012900025019000BF05E040487F
:1019A000005D02A90855601CC4B20B2CF7DB0B21AB
:1019B00002A800F0A9FB642000F036FC12A9394807
:1019C00000F0C7FB9DF8480012284AD13648807ABB
:1019D00000043549C97A40EA01203349097B0843AC
:1019E0000190019800F00F000199C1F303110A2240
:1019F00002FB01000199C1F30321642202FB0100F3
:101A00000199C1F303314FF47A7202FB010001998D
:101A1000C1F3034142F2107202FB01000199C1F3CC
:101A20000351224A02FB01000190052405E01D48F4
:101A3000005D2844C5B2601CC4B2102CF7DB194805
:101A4000007CA8420DD10023194A1A4901A8FFF7CA
:101A500081FC19490860002018490870012013B062
:101A600030BD164801780078401C144A10700A29CD
:101A700005DD0020104908600A201146087000208A
:101A8000EDE710B5FFF74EFDFFF7CCFDFFF745FE84
:101A9000FFF7BEFEFFF77AFFFFF702FC012010BD43
:101AA0002201002034040020F4030020A08601005D
:101AB0005C010020B4080020540100208F000020A9
:101AC00010B53221484803F009FA10BD10B504469C
:101AD0003221204603F002FA10BD10B504464348F7
:101AE00000880A2811D12078AA280ED16078C02851
:101AF0000BD1A078E17840EA01203D4908802079A7
:101B0000617940EA01203B4908800020374908807C
:101B10002046FFF7DBFF002010BD70B50025002434
:101B2000FFF7CEFFEF2030490870E8204870002012
:101B30008870EF20C870042500BF0DE02A48015DC1
:101B40002D4801F075F900BF40212B4801F0DEF966
:101B50000128F9D1601CC4B2AC42EFDB70BD70B596
:101B6000054600260024FFF7ABFFEF201E49087052
:101B7000E820487008468570EF20C870042600BF32
:101B80000DE01948015D1C4801F052F900BF4021E9
:101B9000194801F0BBF90128F9D1601CC4B2B44264
:101BA000EFDB70BD70B500250024FFF789FFEF2043
:101BB0000D490870E8204870E7208870EF20C87051
:101BC000042500BF0DE00848015D0B4801F030F925
:101BD00000BF4021084801F099F90128F9D1601CA3
:101BE000C4B2AC42EFDB70BD020C00208C010020BF
:101BF0003E0100203A010020003801402DE9F0416B
:101C0000002404E0002080490855601CC4B20F2C59
:101C1000F8DB00207D49088000240DE000BF402152
:101C20007B4801F073F90028F9D07A48015D7848C3
:101C300001F0FEF8601CC4B2042CEFDB00BF4021B1
:101C4000734801F063F90028F9D0642000F0ECFA41
:101C50006E4800880A280ADD6F486B490A680260EE
:101C60004A6842608968816000206B4908730422D9
:101C700069496A4803F054F905226749491D6848D3
:101C800003F04EF9664804F023FD05460022654B3B
:101C900005F0E2F8074605F04BF86349088008466E
:101CA0000088BDE8F08110B586B004460121C80463
:101CB00000F027FF0121102000F016FF544800F02B
:101CC0007BFF4FF48060ADF8140003208DF8160000
:101CD00018208DF8170005A9544800F04FFC4FF468
:101CE0000060ADF8140004208DF8170005A94F48D6
:101CF00000F044FC34208DF8000003208DF8010032
:101D00008DF8020001208DF80300684600F06DFB9D
:101D100001940020ADF80800ADF80A00ADF80C0001
:101D2000ADF810000C20ADF80E0001A9384800F005
:101D300086FF012240F22551354801F018F80121B3
:101D4000334801F008F806B010BD10B586B004465F
:101D50000121080500F0D5FE0121302000F0C4FE6D
:101D6000334800F029FF4FF48050ADF814000320F1
:101D70008DF8160018208DF8170005A92B4800F0E3
:101D8000FDFB0420ADF814008DF8170005A92948C3
:101D900000F0F4FB35208DF8000003208DF80100E1
:101DA0008DF8020001208DF80300684600F01DFB4D
:101DB00001940020ADF80800ADF80A00ADF80C0061
:101DC000ADF810000C20ADF80E0001A9184800F085
:101DD00036FF012240F22551154800F0C8FF0121CD
:101DE000134800F0B8FF06B010BD10B5002440F253
:101DF00025510F4801F0A0F820B100BF0C4801F0B8
:101E00001BF8C4B210BD0000B40A00206A01002013
:101E1000004C00406C0100207C0B0020740100206D
:101E200079010020000024406801002000100140DA
:101E3000005000400014014000B587B0012104208B
:101E400000F052FE06A800F022FCC020ADF81800F9
:101E500004208DF81B0006A9654800F08FFB0121C6
:101E6000022000F04EFE634801F0AAF803A9614881
:101E700001F07AF94FF6FF70ADF810000020ADF8D0
:101E80000C00ADF81200ADF80E0003A9594801F09E
:101E90006BF900231A460321564801F074FD684689
:101EA00001F0A1FC0620ADF808006946514801F098
:101EB000EEFB01214F4801F079FF012211464D4808
:101EC00001F0C9FC4FF400404A4924310880012147
:101ED000484801F0A5FC07B000BD00B587B001215E
:101EE000082000F001FE06A800F0D1FBC020ADF8EC
:101EF000180004208DF81B0006A93F4800F03EFBA7
:101F00000121042000F0FDFD3C4801F059F803A92F
:101F10003A4801F029F94FF6FF70ADF810000020A3
:101F2000ADF80C00ADF81200ADF80E0003A933486F
:101F300001F01AF900231A460321304801F023FD6D
:101F4000684601F050FC0620ADF8080069462B48B1
:101F500001F09DFB0121294801F028FF01221146D3
:101F6000264801F078FC4FF40040244924310880D1
:101F70000121224801F054FC07B000BD08B5FFF76D
:101F80005BFF1D208DF8000000208DF801008DF80A
:101F9000020001208DF80300684600F026FAFFF7E2
:101FA0009CFF1E208DF8000000208DF8010001200C
:101FB0008DF802008DF80300684600F016FA08BD9F
:101FC00010B50E4801F0E3FE0D490880094801F004
:101FD000DEFE0B49488010BD10B50121074801F015
:101FE000E8FE18B10121054801F0F4FE10BD000023
:101FF0000008014000040040000C014000080040BF
:102000008001002010B540F22551634800F094FF94
:1020100080B1614800F010FFC4B2604800784028E9
:1020200008DA5F485D49097844545C480078401CF0
:102030005A49087010BD10B586B0044601214820E9
:1020400000F052FD0121880400F05BFD4FF4806038
:10205000ADF8140003208DF8160018208DF8170035
:1020600005A9504800F08AFA4FF40060ADF814005A
:1020700004208DF8170005A94A4800F07FFA4FF4B4
:102080000040ADF8140010208DF8170003208DF8E3
:10209000160005A9444800F071FA0121880400F0F7
:1020A0004AFD00214FF4802000F045FD01940020FE
:1020B000ADF80800ADF80A00ADF80C00ADF810005E
:1020C0000C20ADF80E0001A9334800F0B8FD272020
:1020D0008DF8000003208DF801008DF8020001202A
:1020E0008DF80300684600F080F9012240F2255186
:1020F000294800F03CFE0121274800F02CFE00207A
:102100002A49086006B010BD70B505460E4601208C
:10211000264908604FF000040CE000BF40211E4833
:1021200000F0F4FE0028F9D0295D1B4800F080FE85
:10213000601CC4B2B442F0DB00BF4021164800F07E
:10214000E5FE0028F9D000201449087017490860FE
:1021500070BD2DE9F04107460D4610480678002471
:10216000002028700A2000F05FF80C4800788642B2
:102170000FD176B100BF04E00948005D3855601CFE
:10218000C4B2B442F8DB0548007828700020034947
:102190000870BDE8F0810000004800408401002084
:1021A000900B0020000C014000180140BC012342AC
:1021B00010B56FF0040000F063F92D4800682D4958
:1021C000B0FBF1F02C4908700846007800EB4001A4
:1021D000C1EBC0104FF6FF7101EAC000274908802B
:1021E00010BD0146244A12784A434FF0E0235A6159
:1021F00000229A611A46126942F001021A6100BF78
:102200004FF0E022106910F0010F02D010F4803F6F
:10221000F6D04FF0E022126922F001024FF0E023E5
:102220001A6100229A6170470146144A12884A4393
:102230004FF0E0235A6100229A611A46126942F077
:1022400001021A6100BF4FF0E022106910F0010F87
:1022500002D010F4803FF6D04FF0E022126922F055
:1022600001024FF0E0231A6100229A6170470000DA
:102270006000002000127A00860100208801002002
:1022800010B54FF4A06000F0ABF810BD014600BFE0
:10229000704700BF3D4A128812F0400FFAD0C2B218
:1022A0003A4B1B1D1A80704710B586B004460121B9
:1022B00044F2040000F018FC344800F07DFC4FF4B8
:1022C0000070ADF8140003208DF8160018208DF86A
:1022D000170005A92E4800F051F94FF48060ADF8C1
:1022E000140004208DF8170005A9294800F046F9CC
:1022F00025208DF8000003208DF801008DF80200E4
:1023000001208DF80300684600F06FF8019400206A
:10231000ADF80800ADF80A00ADF80C00ADF81000FB
:102320000C20ADF80E0001A9184800F088FC01222D
:1023300040F22551154800F01AFD0121134800F024
:102340000AFD06B010BD10B540F225510F4800F04F
:10235000F3FDD0B10D4800F06FFDC4B20D480E4939
:102360000988445400210D4801F05AFA01210B4814
:1023700001F056FA08480088401C074908800846C2
:102380000088312801DD0020088010BD00380140A0
:1023900000080140D00B00208C0100200004004008
:1023A0000948804709480047FEE7FEE7FEE7FEE7E9
:1023B000FEE7FEE7FEE7FEE7FEE7FEE70448054925
:1023C000054A064B70470000310A00083101000839
:1023D00008230020082900200825002008250020C7
:1023E00031490143314A1160704770B50021002323
:1023F0000F22C4780CB32D4C246804F4E064C4F5B7
:10240000E064210AC1F10403CA40447804FA03F1EC
:102410008478144021430901254C0678A15504789D
:1024200004F01F050124AC4005786D114FF0E02643
:1024300006EB8505C5F8004109E0047804F01F05A6
:102440000124AC401B4D0678761145F8264070BD3E
:10245000194A0A400243154B1B1F1A60704739B1D5
:10246000124A121D12680243104B1B1D1A6006E02F
:102470000E4A121D126882430C4B1B1D1A607047D6
:10248000042808D14FF0E021096941F004014FF020
:10249000E022116107E04FF0E021096921F0040119
:1024A0004FF0E022116170470000FA050CED00E0EA
:1024B00000E400E080E100E080FFFF1F10B504466B
:1024C000CA48844208D10121042000F027FB0021E2
:1024D000042000F023FB46E0C548844208D10121D6
:1024E000082000F01BFB0021082000F017FB3AE059
:1024F000C048844208D10121102000F00FFB0021C8
:10250000102000F00BFB2EE0BB48844208D10121D3
:10251000202000F003FB0021202000F0FFFA22E041
:10252000B648844208D10121402000F0F7FA00218A
:10253000402000F0F3FA16E0B148844208D10121AE
:10254000802000F0EBFA0021802000F0E7FA0AE09A
:10255000AC48844207D10121801500F0DFFA002148
:10256000A01500F0DBFA10BD10B50121084600F0FF
:10257000D5FA0021012000F0D1FA10BD2DE9F0417B
:10258000024600250026002000230024002791F8A1
:1025900003C00CF00F0591F803C01CF0100F03D01E
:1025A00091F802C04CEA050591F800C0BCF1000F9B
:1025B00031D0146800202BE04FF0010C0CFA00F32E
:1025C000B1F800C00CEA03069E4220D183004FF010
:1025D0000F0C0CFA03F7BC4305FA03FC4CEA0404A5
:1025E00091F803C0BCF1280F06D14FF0010C0CFA92
:1025F00000FCC2F814C00AE091F803C0BCF1480F17
:1026000005D14FF0010C0CFA00FCC2F810C0401CC0
:102610000828D1D31460B1F800C0BCF1FF0F34DD3D
:10262000546800202EE000F1080C4FF0010808FA71
:102630000CF3B1F800C00CEA03069E4221D18300DE
:102640004FF00F0C0CFA03F7BC4305FA03FC4CEAFD
:10265000040491F803C0BCF1280F05D100F1080C67
:1026600008FA0CF8C2F8148091F803C0BCF1480FC6
:1026700007D100F1080C4FF0010808FA0CF8C2F875
:102680001080401C0828CED35460BDE8F0814FF67E
:10269000FF710180022181700421C17070470246E0
:1026A000002093680B4201D0012000E00020704719
:1026B0000146886880B2704702460020D3680B420A
:1026C00001D0012000E0002070470146C86880B2B8
:1026D000704701617047416170470AB1016100E0D4
:1026E00041617047C16070474FF480320A43826194
:1026F0008161826182698269704702460020424B93
:1027000018684FF68073184040EA021008433E4BA9
:10271000186070473D49C8617047F0B50A4600230C
:1027200000240021002500F00046B6F1004F02D140
:10273000354EF16901E0344E7168C0F3034583B250
:1027400000F44016B6F5401F08D121F070612E4EFE
:10275000766826F070662C4F7E6012E000F48016DA
:10276000B6F5801F06D1032606FA05F4A14341F011
:10277000706106E0460D360103FA06F6B14341F0FA
:10278000706122B1460D360103FA06F6314300F0BE
:102790000046B6F1004F02D11B4EF16101E01A4E26
:1027A0007160F0BD30B500228B071C0F0F2303FAB8
:1027B00004F2154B08338C1053F824309343124C19
:1027C00008348D1044F8253023468C1053F82430FB
:1027D0008C07240F00FA04F423430B4C08348D10AB
:1027E00044F8253030BD0A490860704700080140B0
:1027F000000C01400010014000140140001801408D
:10280000001C014000200140000001400000204267
:10281000DC002042DD48006840F00100DB49086030
:1028200008464068DA490840D849486008460068C8
:10283000D8490840D54908600846006820F480203F
:1028400008600846406820F4FE0048604FF41F000E
:1028500088607047CD49096821F48031CB4A116006
:102860001146096821F480211160B0F5803F03D042
:10287000B0F5802F0ED106E0C449096841F48031DB
:10288000C24A116007E0C149096841F4A021BF4A6A
:10289000116000E000BF00BF704710B50146002284
:1028A000002300204A11012A02D1B84C236806E017
:1028B000022A02D1B54C236A01E0B44C636A01F0EC
:1028C0001F02012494401C4201D0012000E000209E
:1028D00010BD38B5002000900024002500BF312035
:1028E000FFF7DBFF05460098401C00900098B0F50C
:1028F000A06F01D0002DF2D03120FFF7CEFF08B13C
:10290000012400E00024204638BD014600209F4AF3
:10291000106820F0F80040EAC100106070479E493E
:102920000860704702460020984B586820F47C10DD
:1029300042EA01031843954B586070479649086670
:10294000704701460020914A506820F00300084378
:10295000506070478D48406800F00C007047014699
:1029600000208A4A506820F0F00008435060704709
:1029700001460020854A506820F4E060084350601A
:10298000704701460020814A506820F4605040EAB8
:10299000C1005060704729B17C4A527A02437B4B98
:1029A0005A7204E0794A527A8243784B5A727047DD
:1029B0007A490860704701460020744A506820F444
:1029C00040400843506070470021754A11706F4ABB
:1029D00082F82010012802D0042808D103E0012148
:1029E0006F4A117004E005216D4A117000E000BFCC
:1029F00000BF70476B49086070476449096A01432A
:102A0000624A11627047674944390860704730B5BF
:102A100000210022002400235C4D6D6805F00C01AC
:102A200021B1042905D0082923D105E05E4D0560B8
:102A300022E05D4D05601FE0544D6D6805F4701295
:102A4000524D6D6805F48034022505EB92421CB9A5
:102A5000564D554305600BE04C4D6D6815F4003F35
:102A600003D0524D5543056002E04F4D554305607C
:102A700002E04D4D056000BF00BF444D6D6805F09C
:102A8000F00109094A4D6B5C0568DD4045603F4D2A
:102A90006D6805F4E061090A454D6B5C4568DD40F1
:102AA00085603A4D6D6805F46051C90A404D6B5C14
:102AB0004568DD40C560354D6D6805F44041890BC2
:102AC0003C4D6B5CC568B5FBF3F5056130BD29B1C4
:102AD0002E4A526902432D4B5A6104E02B4A526937
:102AE00082432A4B5A61704729B1284A92690243AE
:102AF000264B9A6104E0254A92698243234B9A61EE
:102B0000704729B1214AD2690243204BDA6104E0BF
:102B10001E4AD26982431D4BDA61704729B11B4AB4
:102B2000D2680243194BDA6004E0184AD268824343
:102B3000164BDA60704729B1144A12690243134BED
:102B40001A6104E0114A12698243104B1A617047FE
:102B500014494039086070470F49C86470470B49F1
:102B6000C87170470948406A40F080700749486260
:102B7000704701460020054A92680A4201D00120B0
:102B800000E0002070470149887270470010024041
:102B90000000FFF8FFFFF6FE00004242D80042426C
:102BA000201002408004424200127A0000093D00D9
:102BB00094010020A401002010B50446FB48844283
:102BC00009D101218803FFF7A9FF00214FF48040BC
:102BD000FFF7A4FF32E0F648844209D101214804FE
:102BE000FFF7A9FF00214FF40030FFF7A4FF25E015
:102BF000F048844209D101218804FFF79CFF00219D
:102C00004FF48020FFF797FF18E0EB48844209D18A
:102C10000121C804FFF78FFF00214FF40020FFF7C8
:102C20008AFF0BE0E548844208D101210805FFF73F
:102C300082FF00214FF48010FFF77DFF10BD2DE9CA
:102C4000F04786B005460E460024A24600BFA146C6
:102C50000027B08900B100BF2F462C8A4CF6FF70C8
:102C60000440F08804432C82AC894EF6F3100440F3
:102C7000B08831890843718908430443AC81AC8A28
:102C80004FF6FF400440B0890443AC8201A8FFF72F
:102C9000BEFEC648874202D1DDF810A001E0DDF893
:102CA0000CA0A88910F4004F08D00AEBCA0000EB72
:102CB0000A1031684900B0FBF1F807E00AEBCA00DE
:102CC00000EB0A1031688900B0FBF1F86420B8FB12
:102CD000F0F004012009642101FB1089A88910F497
:102CE000004F08D0322000EBC900B0FBF1F000F03B
:102CF0000700044308E0322000EB09106421B0FB18
:102D0000F1F000F00F0004432C8106B0BDE8F0871D
:102D10004FF41651016000218180C18001810C2196
:102D2000418100218181704710B502460020108A40
:102D30004FF2FF0318400B884C8823438C882343B1
:102D4000CC8823431843108210BD002101804180AC
:102D50008180C180704721B1828942F40052828112
:102D600004E082894DF6FF731A4082817047F0B506
:102D700003460024002600250020A1F510676A3FC5
:102D800000D100BF1846C1F3421401F01F0601270D
:102D900007FA06F5012C01D10C3004E0022C01D118
:102DA000103000E014301AB107682F43076002E0CA
:102DB0000768AF430760F0BD1AB1838A0B43838273
:102DC00002E0838A8B4383827047028A4FF6F07356
:102DD0001A400282028A0A430282704782894FF2B5
:102DE000FF731A40828182890A438281704721B130
:102DF000828942F00202828104E082894FF6FD73EB
:102E00001A4082817047028A4FF6DF731A400282AD
:102E1000028A0A430282704721B1028A42F4804248
:102E2000028204E0028A4BF6FF731A400282704766
:102E3000C1F308028280704701468888C0F3080009
:102E40007047818941F0010181817047028BD2B2C4
:102E50000283028B42EA012202837047028B02F452
:102E60007F420283028B0A430283704721B1828A28
:102E700042F02002828204E0828A4FF6DF731A4019
:102E80008282704721B1828A42F01002828204E07D
:102E9000828A4FF6EF731A408282704721B1828A8C
:102EA00042F00802828204E0828A4FF6F7731A40E9
:102EB0008282704721B1828942F40042828103E01C
:102EC0008289C2F30E028281704721B1828A42F464
:102ED0000062828204E0828A4FF2FF731A4082828B
:102EE0007047828A4FF6FB731A408282828A0A43B5
:102EF0008282704721B1828A42F00202828204E01B
:102F0000828A4FF6FD731A40828270470246002083
:102F1000B1F5007F00D100BF13880B4201D0012022
:102F200000E00020704701F40072B2F5007F00D18C
:102F300000BFCA430280704770B5024600240023D8
:102F400000250020A1F510666A3E00D100BFC1F344
:102F5000421501F01F03012606FA03F3012D02D1E9
:102F60009689334006E0022D02D1168A334001E0F3
:102F7000968A33400C12012606FA04F4168834406F
:102F800013B10CB1012000E0002070BD10B500228B
:102F90000023A1F510646A3C00D100BF0A1201248D
:102FA0009440A3B2DC43048010BD0000003801400F
:102FB0000044004000480040004C004000500040E9
:102FC00010B50446FE48844208D10121C014FFF721
:102FD000A5FD0021E014FFF7A1FDC4E0B4F1804F8E
:102FE00008D101210846FFF7A6FD00210120FFF7C7
:102FF000A2FDB8E0F348844208D101210220FFF786
:103000009AFD00210220FFF796FDACE0EE488442D5
:1030100008D101210420FFF78EFD00210420FFF7D5
:103020008AFDA0E0E948844208D101210820FFF789
:1030300082FD00210820FFF77EFD94E0E4488442F1
:1030400008D101211020FFF776FD00211020FFF7A5
:1030500072FD88E0DF48844208D101212020FFF77B
:103060006AFD00212020FFF766FD7CE0DA488442FB
:1030700008D101214014FFF751FD00216014FFF732
:103080004DFD70E0D548844209D10121C804FFF705
:1030900045FD00214FF40020FFF740FD63E0D048DC
:1030A000844209D101210805FFF738FD00214FF4C2
:1030B0008010FFF733FD56E0CA48844209D1012150
:1030C0004805FFF72BFD00214FF40010FFF726FD08
:1030D00049E0C548844208D101214020FFF72BFD7B
:1030E00000214020FFF727FD3DE0C048844208D181
:1030F00001218020FFF71FFD00218020FFF71BFD2D
:1031000031E0BB48844208D101218015FFF713FD4F
:103110000021A015FFF70FFD25E0B648844209D134
:1031200001210804FFF7FAFC00214FF48030FFF77B
:10313000F5FC18E0B048844209D101214804FFF7AA
:10314000EDFC00214FF40030FFF7E8FC0BE0AB484A
:10315000844208D101218804FFF7E0FC00214FF4EC
:103160008020FFF7DBFC10BD00220288944B9842C0
:103170000ED0994B98420BD0B0F1804F08D0914BB4
:10318000984205D0904B984202D0904B984204D17F
:103190004FF68F731A404B881A438D4B984207D0D5
:1031A0008C4B984204D04FF6FF431A40CB881A4309
:1031B00002808B8883850B880385814B98420BD0D6
:1031C000854B984208D08B4B984205D08A4B984249
:1031D00002D08A4B984201D10B7A03860123838265
:1031E000704770B5002400220023058C4FF6FE7650
:1031F00035400584028C8388048B4FF68F752C40F4
:10320000B51E2C400D882C43751E2A400D892A437B
:103210004D882A436A4DA8420BD06F4DA84208D072
:10322000744DA84205D0744DA84202D0734DA842F7
:1032300013D14FF6F7752A404D892A434FF6FB7597
:103240002A408D882A434FF6FF652B404FF6FF55E5
:103250002B408D892B43CD892B4383800483CD88DC
:103260008586028470BD70B5002400220023058C81
:103270004FF6EF7635400584028C8388048B48F640
:10328000FF752C404FF6FF452C400D884FF6FF761A
:1032900006EA05252C434FF6DF752A400D8906EA1C
:1032A00005152A434D8806EA05152A43444DA842D0
:1032B00002D0494DA8421DD14FF67F752A404D8955
:1032C0004FF6FF7606EA05152A434FF6BF752A40EA
:1032D0008D8806EA05152A434FF6FF352B404FF23D
:1032E000FF752B408D8906EA85052B43CD8906EABB
:1032F00085052B4383800483CD880587028470BDB8
:1033000070B5002400220023058C4FF6FF6635407F
:103310000584028C8388848B4FF68F752C404FF682
:10332000FC752C400D882C434FF6FF552A400D8923
:103330004FF6FF7606EA05252A434D8806EA05255D
:103340002A431F4DA84202D0234DA8421DD14FF25F
:10335000FF752A404D894FF6FF7606EA05252A4378
:103360004FF6FF352A408D8806EA05252A434EF69A
:10337000FF752B404DF6FF752B408D8906EA05152C
:103380002B43CD8906EA05152B4383808483CD88A2
:103390008587028470BD70B5002200230024058C4F
:1033A0004EF6FF7635400584038C8488828B48F680
:1033B000FF752A404FF6FF452A400D8820E00000A7
:1033C000002C01400004004000080040000C0040B8
:1033D000001000400014004000340140004C014047
:1033E000005001400054014000180040001C004003
:1033F00000200040004001400044014000480140DE
:103400004FF6FF7606EA05252A434DF6FF752B4059
:103410000D8906EA05352B434D8806EA05352B4311
:10342000FA4DA84202D0FA4DA84208D14BF6FF75DA
:103430002C408D894FF6FF7606EA85152C43848053
:103440008283CD88A0F84050038470BD828B4FF2F8
:10345000FF331A408283828B4FF6FF7303EA012306
:103460001A4382837047F0B50C46154600220021AE
:103470000026078C4EF6FF7C07EA0C070784828B38
:10348000018C4FF6FF7707EA043640F6FF473A40D3
:103490004FF6FF7707EA05273A434FF6FF7707EA2B
:1034A00003373A43D94FB8420ED0D94FB8420BD068
:1034B000B0F1804F08D0D74FB84205D0D64FB842B0
:1034C00002D0D64FB84206D14DF6FF77394046F4C8
:1034D0008057394305E047F6FF57394044F4805799
:1034E000394382830184F0BD828B4FF6F3731A4017
:1034F0008283828B0A4382837047F0B50C4615465F
:10350000002200210026078C4FF6FF6C07EA0C070B
:103510000784828B018C4FF6FF7707EA04264FF66B
:103520000C773A404FF6FF7707EA03172F433A43E9
:10353000B64FB8420ED0B64FB8420BD0B0F1804F64
:1035400008D0B44FB84205D0B34FB84202D0B34F01
:10355000B84206D14FF6FF57394046F480773943D9
:1035600005E04FF2FF57394044F4807739438283B6
:103570000184F0BD028B4FF2FF331A400283028BAD
:103580004FF6FF7303EA01231A4302837047F0B535
:103590000C461546002200210026078C4FF6EF7CD2
:1035A00007EA0C070784028B018C4FF6FF7707EAC6
:1035B000041640F6FF473A404FF6FF7707EA033715
:1035C0003A434FF6FF7707EA05273A438F4FB84251
:1035D0000ED08F4FB8420BD0B0F1804F08D08D4F36
:1035E000B84205D08C4FB84202D08C4FB84206D1B9
:1035F0004FF6DF77394046F01007394305E04FF6C4
:103600005F77394044F01007394302830184F0BDED
:10361000028B4FF6F3731A400283028B0A43028334
:103620007047F0B50C46154600220021068C4FF677
:10363000FE773E400684028B018C4FF60C763240BA
:103640007E1C06EA03162E433243704EB0420ED063
:103650006F4EB0420BD0B0F1804F08D06D4EB042EB
:1036600005D06D4EB04202D06C4EB04206D14FF63E
:10367000FD76314044F00106314305E04FF6F57622
:10368000314044F00106314302830184F0BD70B53E
:1036900005460C465D4885420ED05D4885420BD0FC
:1036A000B5F1804F08D05B48854205D05A48854225
:1036B00002D05A48854200D100E000BF208850B9AE
:1036C0002389A28861882846FFF7ABFFE188284656
:1036D000FFF79EFF25E0208804280AD12389A288CD
:1036E00061882846FFF753FFE1882846FFF742FF2D
:1036F00017E0208808280AD12389A28861882846F3
:10370000FFF7FBFEE1882846FFF7EEFE09E023897C
:10371000A28861882846FFF7A6FEE1882846FFF7C1
:1037200095FE70BD2DE9F04105460C4600260127A7
:10373000608808B9022600E00026A088012801D18F
:10374000022700E001272088A0B92389A288618888
:103750002846FFF766FFE1882846FFF759FF2389CF
:103760003A4631462846FFF712FFE1882846FFF720
:1037700001FF13E02389A28861882846FFF707FF2D
:10378000E1882846FFF7F6FE23893A463146284667
:10379000FFF747FFE1882846FFF73AFFBDE8F081D1
:1037A0000A884B881A438B881A43CB881A430B89A3
:1037B0001A434B891A438B891A43A0F84420704757
:1037C0004FF6FF71818000210180C180418001722C
:1037D00070470021018041808180C1800181418149
:1037E0008181C18170470021018041800121818058
:1037F0000021C180018170470021018041808180CA
:10380000C18001814181818170470000002C01400D
:10381000003401400004004000080040000C00405B
:1038200021B1028842F00102028004E002884FF6D2
:10383000FE731A400280704731B1B0F8442042F460
:103840000042A0F8442005E0B0F84420C2F30E0284
:10385000A0F8442070471AB183890B43838102E0AA
:1038600083898B43838170478182704741EA0203D9
:10387000A0F8483070471AB183890B43838102E076
:1038800083898B438381704701894FF6F872114019
:10389000018170470A46002101894FF68F73194054
:1038A00011430181704730B504460D462946204634
:1038B000FFF7F0FF208940F00700208130BD2DE99F
:1038C000F04104460D4616461F46602D06D13B4684
:1038D000012231462046FFF75AFE05E03B46012211
:1038E00031462046FFF79DFE29462046FFF7D2FFCE
:1038F000208940F007002081BDE8F08130B50C46FA
:1039000000210189C9B24FF6FF7505EA0325154369
:1039100025432943018130BD2DE9F04105460E467E
:1039200017469846002443463A4631462846FFF754
:10393000E5FF2C894FF6F870044044F007044FF679
:103940008F70044044F070042C81BDE8F081F0B524
:1039500004460D4616461F463B463246294620463B
:10396000FFF7CCFF208940F480402081F0BD018525
:10397000828270470A46002101884FF68F731940F2
:10398000114301807047F0B50C4615461E460021D4
:10399000002200230189028B038C4FF6F87739400F
:1039A00021434FF6FC473A4040F201173A434FF6A5
:1039B000DD773B404FF6FF7707EA06172F433B437F
:1039C000018102830384F0BD0A460021018B4FF67A
:1039D0008F7319401143018370470A460021018B00
:1039E00048F6FF7319404FF6FF7303EA02231943A9
:1039F000018370470A460021818B4FF68F7319406F
:103A00001143818370470A460021818B48F6FF737A
:103A100019404FF6FF7303EA02231943818370476D
:103A200021B1028842F08002028004E002884FF651
:103A30007F731A400280704721B1828842F00402ED
:103A4000828004E082884FF6FB731A4082807047C0
:103A500021B1828842F00802828004E082884FF619
:103A6000F7731A408280704721B1828842F00102C8
:103A7000828004E082884FF6FE731A40828070478D
:103A80000A460021018B4FF6F77319401143018359
:103A900070470A460021018B4FF2FF7319404FF621
:103AA000FF7303EA02231943018370470A4600218A
:103AB000818B4FF6F77319401143818370470A4693
:103AC0000021818B4FF2FF7319404FF6FF7303EA19
:103AD00002231943818370470A460021018B4FF668
:103AE000FB7319401143018370470A460021018B83
:103AF0004FF6FF3319404FF6FF7303EA02231943D1
:103B0000018370470A460021818B4FF6FB731940F1
:103B10001143818370470A460021818B4FF6FF33A2
:103B200019404FF6FF7303EA02231943818370475C
:103B30000A460021018B4FF67F7319401143018320
:103B400070470A460021018BC1F30E014FF6FF7347
:103B500003EA02231943018370470A460021818B3F
:103B60004FF67F7319401143818370470A46002145
:103B7000818BC1F30E014FF6FF7303EA0223194351
:103B8000818370470A460021018C4FF6FD7319406E
:103B90001143018470470A460021018C4FF6F773E8
:103BA00019401143018470470A460021018C4FF6E9
:103BB000DF7319404FF6FF7303EA021319430184C0
:103BC00070470A460021018C4FF67F7319404FF66B
:103BD000FF7303EA02131943018470470A46002168
:103BE000018C4FF6FF5319404FF6FF7303EA02238F
:103BF0001943018470470A460021018C4FF2FF737C
:103C000019404FF6FF7303EA0223194301847047FA
:103C10000A460021018C4DF6FF7319404FF6FF73E1
:103C200003EA023319430184704730B500230124AD
:103C30008C40A3B2048C9C430484048C02FA01F5EA
:103C4000ADB22C43048430BD30B5002304248C4035
:103C5000A3B2048C9C430484048C02FA01F5ADB237
:103C60002C43048430BD70B5034600200024184660
:103C7000183001258D40ACB21D8CA5431D8409B1BF
:103C8000082909D100EB6100056825F07005056081
:103C90000568154305600EE00D1FC5F34E05284469
:103CA000056825F4E045056005684FF6FF7606EAED
:103CB00002263543056070BD21B1028842F0020240
:103CC000028004E002884FF6FD731A4002807047BC
:103CD00021B1028842F00402028004E002884FF61B
:103CE000FB731A400280704721B1828842F0800243
:103CF000828004E082884FF67F731A40828070478A
:103D000002884FF6F7731A40028002880A43028045
:103D1000704782884FF68F731A40828082880A43E8
:103D20008280704702894FF6F8731A400281028937
:103D30000A430281704702894FF67F731A4002815D
:103D400002890A43028170478184704781857047E8
:103D5000818670470187704781877047A0F84010BF
:103D6000704702884FF6FF431A40028002880A43D8
:103D7000028070470146888E70470146088F704761
:103D80000146888F70470146B1F8400070470146F0
:103D9000888C70470146088D704702460020138AC0
:103DA0000B4201D0012000E000207047CA4302828C
:103DB000704730B50246002000230024158A05EA2A
:103DC0000103958905EA010413B10CB1012000E05B
:103DD000002030BDCA4302827047000010B504467F
:103DE000FA48844208D101214015FEF797FE0021D0
:103DF0006015FEF793FE17E0F548844208D10121D3
:103E00000015FEF78BFE00212015FEF787FE0BE064
:103E1000F048844208D10121C803FEF77FFE00214B
:103E20004FF40040FEF77AFE10BD30B50246002088
:103E300000235068E84C20400D790C6844EA0524C2
:103E4000204350609068E54C2040D1E902542C4357
:103E50004D7944EA450420439060D06A20F4700014
:103E60000C7C641EE4B2234340EA0350D06230BDB0
:103E700000210160017141718160C1600121017403
:103E8000704721B1826842F00102826003E08268DB
:103E900022F001028260704721B1826842F4807290
:103EA000826003E0826822F480728260704710B5FD
:103EB0000023CBB21AB144681C43446002E044685A
:103EC0009C43446010BD816841F0080181607047E7
:103ED000014600208A6812F0080F01D0012000E09E
:103EE00000207047816841F00401816070470146FD
:103EF00000208A6812F0040F01D0012000E00020A9
:103F0000704721B1826842F4A002826003E08268B7
:103F100022F4A00282607047014600208A6812F4F1
:103F2000800F01D0012000E00020704710B50A4644
:103F300000210023416821F46041531E41EA4331CE
:103F4000416010BD21B1426842F40062426003E06A
:103F5000426822F4006242607047F0B504460D46A4
:103F600000200021092D11DDE068A5F10A0606EB0D
:103F70004607072606FA07F18843A5F10A0606EB6D
:103F8000460603FA06F10843E0600CE0206905EB01
:103F90004507072606FA07F1884305EB450603FAAD
:103FA00006F108432061072A0FDA606B561E06EB04
:103FB00086071F2606FA07F18843561E06EB86067B
:103FC00005FA06F10843606322E00D2A0FDA206B40
:103FD000D61F06EB86071F2606FA07F18843D61F71
:103FE00006EB860605FA06F10843206310E0E06A56
:103FF000A2F10D0606EB86071F2606FA07F1884395
:10400000A2F10D0606EB860605FA06F10843E0620A
:10401000F0BD21B1826842F48012826003E08268C0
:1040200022F48012826070470146C86C80B27047EB
:1040300066484C300068704721B1426842F48062A3
:10404000426003E0426822F480624260704721B11E
:10405000426842F48052426003E0426822F4805297
:10406000426070470A460021816821F4E041114313
:104070008160704721B1826842F40042826003E0AF
:10408000826822F400428260704721B1826842F463
:104090000212826003E0826822F40212826070479A
:1040A000014600208A6812F4001F01D0012000E0C0
:1040B00000207047F0B50446154600200022002677
:1040C000092911DDE068A1F10A0707EB470C072772
:1040D00007FA0CF29043A1F10A0707EB470703FA2E
:1040E00007F21043E0600CE0206901EB410C072768
:1040F00007FA0CF2904301EB410703FA07F2104371
:104100002061A06BC0F30156EF1C06F1010CA7EB78
:104110000C0707EB870C1F2707FA0CF29043EF1CE4
:1041200006F1010CA7EB0C0707EB870701FA07F272
:104130001043A063F0BD10B50A4600210023816B37
:1041400021F44011531E41EA0351816310BD08B5AB
:10415000002300930090009B0B440093009B1A6087
:1041600008BD08B5024600200090009201F1280029
:10417000009B184400900098006880B208BD0A4671
:1041800000214168164B194011434160704741625C
:10419000826270470A460021416821F01F011143E5
:1041A0004160704740B109490831096841F4000194
:1041B000064A0832116007E004490831096821F411
:1041C0000001024A083211607047000000240140DB
:1041D00000280140003C0140FFFEF0FFFDF7F1FF29
:1041E000FFFD3FFF0246002013680B4201D0012073
:1041F00000E000207047CA430260704770B5024675
:104200000020002300240B125568CEB205EA0604F4
:1042100015681D4202D00CB1012000E0002070BDE5
:1042200000220A12D34303607047000001684FF672
:10423000FE72114001600021016041608160C16037
:104240008C49884208D18B490839496841F00F01EF
:10425000884A083A51608AE086491431884208D178
:1042600084490839496841F0F001824A083A5160AE
:104270007DE080492831884208D17E490839496863
:1042800041F470617B4A083A516070E079493C31F1
:10429000884208D177490839496841F47041754A24
:1042A000083A516063E073495031884208D171493E
:1042B0000839496841F470216E4A083A516056E065
:1042C0006C496431884208D16A490839496841F427
:1042D0007001684A083A516049E06649783188427D
:1042E00008D164490839496841F07061614A083A67
:1042F00051603CE06049884206D1011F096841F0E5
:104300000F01021F116032E05B491431884208D16D
:104310005949091F096841F0F001574A121F1160FD
:1043200025E055492831884208D15349091F0968B9
:1043300041F47061504A121F116018E04E493C313F
:10434000884208D14C49091F096841F470414A4A22
:10435000121F11600BE048495031884207D146498D
:10436000091F096841F47021434A121F1160704708
:1043700010B50022026847F6F0739A430C6A8B6806
:1043800023430C6923434C6923438C692343CC6941
:1043900023434C6A23438C6A23431A430260CB684D
:1043A00043600B6883604B68C36010BD00210160EF
:1043B00041608160C160016141618161C1610162EF
:1043C00041628162704721B1026842F001020260DD
:1043D00004E002684FF6FE731A40026070471AB19B
:1043E00003680B43036002E003688B43036070477C
:1043F000416070470146486880B27047014600201E
:10440000002211F0805F03D01B4B083B1A6802E0CA
:10441000184B083B1A680A4201D0012000E0002036
:10442000704710F0805F03D01349091F086002E055
:10443000104908394860704701460020002211F0F9
:10444000805F03D00C4B083B1A6802E0094B083B25
:104450001A680A4201D0012000E00020704710F0E5
:10446000805F03D00449091F086002E00149083950
:10447000486070470800024008040240FD48FE49B9
:104480000860FE484860FE488860FE48C860FE48F4
:10449000FE490860FE484860FE488860FE48C860E3
:1044A000FE480861FE484861FE488861FE48C861D0
:1044B000FE480862FE484862FE488862801CC86266
:1044C000FD480863801C4863FC488863801CC863FF
:1044D000FB480864801C4864FA488864801CC864EF
:1044E000F9480865801C486570471FB501212020E8
:1044F000FEF707FBF548008800EB80004FF6FF71E0
:1045000001EA4000ADF808004FF4E150ADF80400B6
:104510000020ADF80A00ADF8060001A9EC48FEF74E
:1045200023FE01221146EA48FFF795F937208DF85E
:10453000000003208DF8010001208DF802008DF8A5
:1045400003006846FDF751FF1FBD10B586B0044655
:1045500001211020FEF7C8FA0121C804FEF7D1FAA4
:104560004FF48060ADF8140003208DF81600182079
:104570008DF8170005A9D748FEF700F84FF4006042
:10458000ADF8140004208DF8170005A9D148FDF7F7
:10459000F5FFD148FEF710FB34208DF80000032012
:1045A0008DF8010000208DF8020001208DF8030035
:1045B0006846FDF71AFF01940020ADF80800ADF839
:1045C0000A00ADF80C00ADF810000C20ADF80E009C
:1045D00001A9C148FEF733FB012240F22551BE4834
:1045E000FEF7C5FB0121BC48FEF7B5FBFFF77DFFD9
:1045F000FFF744FF06B010BD70B504460D460BE052
:1046000000BF8021B448FEF781FC0028F9D014F8DF
:10461000011BB148FEF70CFC2800A5F10101CDB249
:10462000EED100BF4021AC48FEF770FC0028F9D065
:1046300070BD10B540F22551A748FEF77DFCF0B1E2
:10464000A548FEF7F9FBC4B2A448008840F2FF7108
:10465000884214DAA248A149098844549F48008836
:10466000401C9E49088001219948FFF7B3FB0021B7
:104670009748FFF769FB01219548FFF7D1F810BD76
:1046800010B501219248FFF794FB50B101219048E9
:10469000FFF7A0FB00218E48FFF7C2F801209149E7
:1046A000087010BD10B58E4840798D49097940EAEF
:1046B00001208D4908808D480088098808446428B5
:1046C0004FDA002423E0072000EB44008449085C13
:1046D0000002864909882144674A52F8211008805F
:1046E000824800882044114651F8200000880821A3
:1046F00001EB44017A4A515C40EA01207B49098878
:1047000021445D4A52F821100880601CC4B27648EA
:1047100000888442D7DB7248007875490870704879
:10472000407848706E48807888706D48C078C8704E
:104730006B48007908716A484079487106216C48D5
:1047400000F050FA6B490880084600786849887183
:1047500068480088000AC87108216548FFF74CFFC7
:104760000EE05F480078624908705D48407840F08C
:10477000800048700220887003215D48FFF73CFFED
:1047800010BD10B55648007900023B49574A1288BF
:1047900051F82210088038485449098850F82100FF
:1047A00000884F49497908433349504A128851F8E3
:1047B000221008804A4800784D49087048484078DF
:1047C00048704748807888704548C078C870444829
:1047D000007908714248407948710621444800F048
:1047E00001FA4449088008460078414988714148E7
:1047F0000088000AC87108213D48FFF7FDFE10BD82
:1048000010B5374840793649097940EA01203649E0
:104810000880364800880988084464286CDA3048E3
:104820000078334908702E48407848702E48007848
:104830004006000E8870002419E02C4800882044AF
:10484000124951F820000088000A032101EB4401BD
:10485000274A50542548008820440C4951F820002C
:104860000078042101EB44015054601CC4B21E487E
:10487000008842E0B8010020881F0020BA01002013
:10488000BE010020BC010020B6010020182100203C
:10489000360100203801002086000020840000201E
:1048A0005C0000203C0100203A0100203E01002075
:1048B0006801002040010020440100204801002040
:1048C0004C0100205401002050010020AE010020C6
:1048D0000014004000100140004C0040B0010020D6
:1048E000680C0020B2010020C2010020C00100209D
:1048F00068140020C401002029E084429DDBAC48FC
:104900000088032202EB400081B2AA4800F06AF955
:10491000A949088008460178A5480088032202EBCF
:104920004000A44A1154A4480088010AA048008805
:10493000042202EB40009F4A11549D480078052252
:1049400002EB4000C1B29B48FFF756FE0EE09B48C9
:104950000078984908709948407840F08000487085
:104960000220887003219348FFF746FE10BD10B562
:10497000924840799149097940EA01208C490880A0
:104980008F48008809880844642853DA8B480078E7
:104990008849087089484078487085480078400602
:1049A000000E8870002419E085480088204485495D
:1049B00051F820000088000A032101EB44017D4AE0
:1049C00050547F48008820447E4951F820000078E8
:1049D000042101EB44015054601CC4B274480088A7
:1049E0008442E1DB72480088032202EB400081B27E
:1049F000704800F0F7F870490880084601786C4864
:104A00000088032202EB40006A4A11546A48008879
:104A1000010A67480088042202EB4000654A1154ED
:104A200063480078052202EB4000C1B26148FFF7FD
:104A3000E3FD0EE0614800785E4908705F48407809
:104A400040F0800048700220887003215948FFF729
:104A5000D3FD10BD10B55C48007801286FD15748D0
:104A600000785A49097888426AD154484078012828
:104A70001BD052484078022817D05048407803286D
:104A800013D04E48407804280FD04C484078052871
:104A90000BD04A484078062807D0484840780F286D
:104AA00003D04648407810286DD14448C078434927
:104AB000897840EA01204249088008460088642835
:104AC00051DA43480088801E81B23C4800F08AF8E1
:104AD000394908803E480088801E3849095C3C48B6
:104AE0000088401E354A105C41EA002432480088A4
:104AF000A04228D110464078052812D008DC0128B1
:104B00000ED002280BD003280DD0042819D10DE0B7
:104B100006280ED00F2805D0102812D10CE011E085
:104B200010E00FE00EE0FFF722FF0BE0FFF768FE5A
:104B300008E0FFF726FE05E0FFF7B4FD02E036E0EF
:104B400030E000BF2EE01D4800781A4908701B486D
:104B5000407840F080004870042088700321154898
:104B6000FFF74AFD1EE01548007812490870134807
:104B7000407840F0800048700220887003210D4882
:104B8000FFF73AFD0EE00D4800780A4908700B481F
:104B9000407840F08000487001208870032105486B
:104BA000FFF72AFD0020084908700949088010BD58
:104BB000C201002068140020C4010020680C0020FD
:104BC000C0010020881F0020B2010020AD0100209C
:104BD000B00100200146322900DA09B906207047E9
:104BE0000846FCE770B502460B46FF25FF2618462F
:104BF000FFF7F0FF034609E012F8010B80EA060414
:104C00000648005D80EA05060548055D1800A3F129
:104C100001018BB2F0D146EA052070BD6C77000827
:104C20006C78000870B5064600F0A8F9056806F132
:104C30000B0020F00704B4429CBF002070BD2B463F
:104C40006A68BAB11068A04210D304F10801884222
:104C50003CBF5068586007D3516810194160116813
:104C6000091B016058601460101D70BD1346526826
:104C7000002AE7D12146284600F088F90028DED135
:104C800070BD70B50446051F00F078F90068002C6F
:104C900014BF446870BD002C18BFAC423CBF204616
:104CA0006468F8D301680A18AA4218BF456003D1A6
:104CB0002A6805461144016028684119A1421CBFB9
:104CC0006C6070BD6168696021680844286070BDCF
:104CD0000FB41CB5074B06AA7B44694600900598A3
:104CE00000F00BFA0020694600F01AFA1CBC5DF8CF
:104CF00014FB0000450400002DE9F0410E46044677
:104D0000002020622046E168884730B3252805D07E
:104D1000D4E901219047206A401CF2E7E16820466F
:104D200000278847050018D0A5F14100192802D8AE
:104D300020354FF400673246294620462760FBF7AE
:104D400051FA40B1012804D0F61D26F007060836B6
:104D5000D8E7361DD6E72846DAE7206ABDE8F081B5
:104D60002DE9F0410646002410687529314616A544
:104D700011D0AFF30080002803DAC0F1000013A5C2
:104D800007E031688A0701D511A502E0490704D57B
:104D900010A5012401E0AFF3008000210A2306F1F1
:104DA000240707E0B0FBF3F203FB12003030785425
:104DB0001046491C0028F5D123462A463046BDE856
:104DC000F04100F038B90000000000002D000000A4
:104DD0002B000000200000000649074A08685043E5
:104DE00043F2390210440860C0F30E407047014995
:104DF00008607047C80100206D4EC64110B5431CC5
:104E000002E010F8011B71B18107FAD14FF00132B5
:104E100002C88C1A8C4314EAC211F9D0C01A0A06CF
:104E200003D0C01E10BDC01A10BD0A0401D0801EE0
:104E300010BD0902FCD0401E10BD421E12F8013FF9
:104E4000002BFBD111F8013B002B02F8013BF9D1FB
:104E50007047032A40F2308010F0030C00F01580F8
:104E600011F8013BBCF1020F624498BF11F801CB6D
:104E700000F8013B38BF11F8013BA2F1040298BFD2
:104E800000F801CB38BF00F8013B11F0030300F03C
:104E90009D81083AC0F0088051F8043B083A51F867
:104EA00004CBA0E80810F5E7121D5CBF51F8043BE5
:104EB00040F8043BAFF30080D20724BF11F8013B58
:104EC00011F801CB48BF11F8012B24BF00F8013BBA
:104ED00000F801CB48BF00F8012B70474FF00002EB
:104EE0000429C0F0128010F0030C00F0A381CCF173
:104EF000040CBCF1020F18BF00F8012BA8BF20F86A
:104F0000022BA1EB0C0100F095B95FEAC17C24BF34
:104F100000F8012B00F8012B48BF00F8012B704767
:104F200010B5044610F0030F08BF11F0030F40F056
:104F300015804FF0013E121FC0F20E8051F8043B65
:104F4000A3EB0E0C2CEA030C1CEACE1C08BF40F8A5
:104F5000043BF0D0A1F1040102F10402521E08DB6F
:104F600011F8013B002B00F8013BF7D11146FFF788
:104F7000B5FF204610BD7047704770470048704726
:104F8000B0220020704770477047704738B504461C
:104F90000A4600206946AFF30080002808BF38BDEC
:104FA00002460099204600F073F9012038BD012027
:104FB00000F0B1B9F8B5AFF30080054600200C460B
:104FC000102000BF0646A819A0420DD932466946F6
:104FD0000020AFF30080070008BF00F09CF90098A4
:104FE000A04218BF0546C419FFF7C8FF0560074671
:104FF000F01D20F007004619284600F00AF8B442D8
:1050000008BFF8BDA21B31463868BDE8F84000F083
:105010003FB900210160C0E90110704710207047BE
:1050200010B500F031F9006810BD10B5044600F06D
:105030002BF9046010BD2DE9F0470D4699469246C4
:10504000044600F124080168880604D5E06921F0CF
:105050001001216000E00120A84202DDA0EB05075D
:1050600000E00027A16907EB050202EB0900A1EBB4
:105070000000A0612078C00602D42046AFF3008073
:10508000002608E0D4E901211AF806009047206ABA
:10509000401C761C20624E45F4DB2078C0060AD501
:1050A0002046AFF3008006E0D4E90121302090478C
:1050B000206A401C2062381EA7F10107F4DC07E0DB
:1050C000D4E9012118F805009047206A401C2062AD
:1050D000281EA5F10105F3DC2046AFF300802078FF
:1050E000000602D50220BDE8F0870120FBE70000A2
:1050F00001694A1C02610878704700B58FB0CDE99C
:1051000001310021059105497944CDE9031011468B
:105110006846FFF7F1FD0FB000BD0000E5FFFFFF9F
:105120000A6802F8010B0A60704700000FB4002300
:1051300000B589B00CA900910B99CB60204B7B4442
:105140000693204B7B44079304236FF00042CDE984
:1051500001321D4A7A446B4608920246002002F052
:10516000E7FA09B05DF814FB70B506464FF0FF3062
:1051700015460C46324686B00091CDE901016946DC
:105180000020049004A8FFF7D1FF034604982118DB
:1051900025B108B10A4600E022462A6000280DD059
:1051A000002B02DD0098884208D03246081B694671
:1051B0000094CDE9010404A8FFF7B8FF06B070BD64
:1051C00095010000AD0100006D01000010B5203A0E
:1051D000C0F00B80B1E81850203AA0E81850B1E8B0
:1051E0001850A0E81850BFF4F5AF5FEA027C24BF66
:1051F000B1E81850A0E8185044BF18C918C0BDE85D
:1052000010405FEA827C24BF51F8043B40F8043B25
:1052100008BF7047D20728BF31F8023B48BF11F8DA
:10522000012B28BF20F8023B48BF00F8012B704734
:105230004FF0000200B5134694469646203922BF2F
:10524000A0E80C50A0E80C50B1F12001BFF4F7AF7A
:10525000090728BFA0E80C5048BF0CC05DF804EB5C
:10526000890028BF40F8042B08BF704748BF20F8CA
:10527000022B11F0804F18BF00F8012B704700007F
:1052800000487047A822002000487047A82200204C
:10529000034640688C46002818BF88423CBF03463E
:1052A0004068F8D318681844884207D00CF103000E
:1052B00020F00700001D411A521A0146081D0A601D
:1052C000FFF7DFBC10B5044600F052F80068005D3F
:1052D00000F0010010BD426842B1016811F8013BC5
:1052E00023B1521EC0E90012184670470121C16067
:1052F000881E704742685AB1C368016843B9836821
:105300008B4205D0491E521CC0E900120020704794
:105310004FF0FF30704710B500F090FABDE8104034
:1053200000F086BA70477546FFF7AAFFAE46050043
:105330006946534620F00700854618B020B5FDF7B2
:105340003DF8BDE820404FF000064FF000074FF059
:1053500000084FF0000B21F00701AC46ACE8C00993
:10536000ACE8C009ACE8C009ACE8C0098D4670479C
:1053700010B500F0CBFA001D10BD00BF8514000071
:105380002DE9FF4F064689B00878FF2806D0491C52
:105390002D2805D000244FF0000908E000200CE083
:1053A0000124F8E709EB8903491C00EB430908785D
:1053B000FF28F7D114B1C9F100008146107800250B
:1053C0002C46AA4629462D2801D02B2804D1521C50
:1053D0002D2813D0002082468B461078FF280FD04E
:1053E0004FF0000C0A21521CA5FB017804FB01813F
:1053F00005FB0C11C5194BEB0104EEE70120EAE7B0
:10540000002108464FF00000BAF1000F02D000EB77
:1054100080004008C0F38158B8F1010F01DD4FF062
:10542000FF380C9809EB000755EA040006D14FEA53
:10543000CA70C6E900B00DB0BDE8F08F17F5FA7F6D
:105440004FF0020904DA4FEACA70C6E900B00BE077
:10545000B7F5FA7F0DDDF0487844D0E90010C6E9D1
:10546000001040EACA707060FFF70EFFC0F80090AD
:10547000E1E7391E02DAC8F1000200E0424600DA34
:10548000794206A800F046FA06AB07CB03AB07C388
:1054900044F23E005BEA04010090584604D144F215
:1054A0001E012C465D460091210C0904014306D1E2
:1054B0000099240444EA15442D041039009104F0A5
:1054C0007F41014306D10099240244EA15642D026C
:1054D0000839009104F07041014306D1009924017C
:1054E00044EA15742D01091F009104F04041014365
:1054F00006D10099A40044EA9574AD00891E00917C
:1055000004F00041084304D100986D196441401E25
:10551000009042466846002FCDE9014503A902DD0F
:1055200000F039FF01E000F00EFFBAF1000F044671
:105530000D4601D084F0004440F2FF7724F0004093
:10554000284303D0C4F30A50B84212D1FFF79CFE9F
:10555000C0F80090C4F30A50B8420AD1AF4878446A
:10556000D0E90010C6E9001004F000410843706063
:1055700061E7C6E900545EE72DE9FF4F1F464FF093
:10558000000A4FF0FF38454691B0D7E90146CDF803
:105590003CA000F0BBF9C0680168405C1090B9699C
:1055A00012986D1C8847396A814688470028F6D1D1
:1055B00019F101000AD0002E24F4D06412DDB9F1F3
:1055C0002B0F08D0B9F12D0F0CD102E0404615B0D9
:1055D00032E744F48064B96912986D1C88478146AB
:1055E000A6F10106600504A901D52D2000E02B20BD
:1055F000002E01F1010B0DF130088DF810003FDD98
:10560000B9F1690F08D0B9F1490F05D0B9F16E0FA2
:1056100002D0B9F14E0F1CD13B4601A80095A0E87D
:105620005002DDE912126FF0020002F085F8C11C91
:10563000CDD10EE0B96912986D1C88478146139848
:10564000761E44F4007405600F98401C002E0F90E5
:1056500016DDB9F1300FEDD0B9F1780F02D0B9F104
:10566000580F0DD10F9801280AD13B46CDE90054BF
:10567000DDE91212001F029602F05CF8C11CA6D1EF
:10568000109989453ED144F0800406E01399681CC6
:10569000AAF1010A44F400740860B969761E1298F0
:1056A0006D1C884730288146F0D02BE01099894541
:1056B00005D1200603D4761E44F0800418E0484645
:1056C00000F0FFFF08B3761E0DF123018B4544F473
:1056D000007408D2A9F130000BF8010B200607D5A1
:1056E000AAF1010003E0200602D40AF1010082467B
:1056F000A00502D51399681C0860B96912986D1C41
:1057000088478146002ED1DC54E0002E52DDB9F1ED
:10571000650F02D0B9F1450F4CD1A0054AD5B96942
:10572000761E12986D1C24F440748847002E814622
:105730000DDD2B2804D0B9F12D0F08D144F480746D
:10574000B96912986D1C88478146A6F10106E005EB
:1057500001D52D2100E02B2108F8011BCDF8008098
:1057600021E0761E0DF13901884544F400740CD215
:10577000A9F1300010F0FF0088F8000002D1009974
:10578000884509D908F1010806E0E00501D524485B
:1057900001E042F20F708246B96912986D1C884789
:1057A000814613980560002E04DD484600F089FF0D
:1057B0000028D6D1F96912988847FF2053468BF804
:1057C000000088F8000000200A900B9004AA0CA9A1
:1057D0000AA8FFF7D5FDA00502D46FF00100F6E698
:1057E00014F0240F0AD0E00714D13868DDE90A125A
:1057F000031D3B600068C0E900120BE00AA968467F
:1058000000F008FFE00705D13868009A011D3960F3
:10581000006802602846DAE6442600003E250000C3
:10582000F1D8FFFF0446AFF300802046FAF7FEFCF4
:10583000002801D0FCF72ABD7047000010B50128F0
:1058400005D0002103A000F0D7F8012010BD09A168
:10585000F8E7000053494752544D454D3A204F75E3
:1058600074206F662068656170206D656D6F727958
:10587000000000003A2048656170206D656D6F7210
:105880007920636F72727570746564004FF0013C2B
:1058900050F8042B51F8043B9A4221D1A2EB0C039F
:1058A000934313EACC1317D150F8042B51F8043B5F
:1058B0009A4215D1A2EB0C03934313EACC130BD1FC
:1058C00050F8042B51F8043B9A4209D1A2EB0C0387
:1058D000934313EACC13DBD04FF00000704700BFB6
:1058E000D01A01BAB1FA81F101F0180122FA01F0DF
:1058F000CB40C1F12001DBB2C0B2C01A2CFA01F3D7
:10590000D11A914311EAC311E6D17047004870479C
:10591000C82200202DE9F047814616468AB0354856
:105920007844D0E9002380680092CDE90130314805
:1059300078440C38D0E90223006903924FF0370213
:10594000CDE9043041F69B30014491FBF2F0A0F127
:10595000800502FB10141B3C02D56442012000E0CC
:105960000020DFF890A080460027FA44AAF1C60A7A
:105970000DE0E00709D03246684607EB47010AEB25
:10598000810100F0F4FC8DE8070064107F1C002CFE
:10599000EFD1184F7F44B43F17E0E80713D007EB6F
:1059A00004100DF1180A90E80E00AAE80E00C06875
:1059B000F04201D198190890324606A903A800F0D8
:1059C000D6FC03AB07C36D10641C002DE5D1324635
:1059D0006946B8F1000F03A802D000F0A0FC01E076
:1059E00000F0C5FCC9E90001C9F808200AB0BDE80B
:1059F000F0870000C420000070B505460C460A2060
:105A000000E06D1C00F011F835B128780028F8D1BD
:105A100002E0641C00F009F814B120780028F8D1E5
:105A2000BDE870400A20AFF3008008B569468DF8E4
:105A300000000320ABBE08BD2DE9FF4F1F464FF00D
:105A40003C0987B04FF00042DDE9141001F1010874
:105A5000DDF858A002EA40500390002004908346ED
:105A6000054604460590B969461E08988847AAF17C
:105A7000010A0290BAF1000F37DD02982E2815D0E6
:105A8000102100F014FA00282ADB4FF0010B0499D2
:105A9000014316D0B9F1000F0BDB4A46C11700F0E5
:105AA000F3F905430C43A9F1040905E00120059031
:105AB00007E008B145F0010501200490059800B900
:105AC000361DB969089808F101088847BBF1000F35
:105AD000AAF1010A0290CDD00999C1F80080C9E766
